{"abi":[{"type":"constructor","inputs":[{"name":"wethToken","type":"address","internalType":"address"}],"stateMutability":"nonpayable"},{"type":"function","name":"createPool","inputs":[{"name":"tokenAddress","type":"address","internalType":"address"}],"outputs":[{"name":"","type":"address","internalType":"address"}],"stateMutability":"nonpayable"},{"type":"function","name":"getPool","inputs":[{"name":"tokenAddress","type":"address","internalType":"address"}],"outputs":[{"name":"","type":"address","internalType":"address"}],"stateMutability":"view"},{"type":"function","name":"getToken","inputs":[{"name":"pool","type":"address","internalType":"address"}],"outputs":[{"name":"","type":"address","internalType":"address"}],"stateMutability":"view"},{"type":"function","name":"getWethToken","inputs":[],"outputs":[{"name":"","type":"address","internalType":"address"}],"stateMutability":"view"},{"type":"event","name":"PoolCreated","inputs":[{"name":"tokenAddress","type":"address","indexed":false,"internalType":"address"},{"name":"poolAddress","type":"address","indexed":false,"internalType":"address"}],"anonymous":false},{"type":"error","name":"PoolFactory__PoolAlreadyExists","inputs":[{"name":"tokenAddress","type":"address","internalType":"address"}]},{"type":"error","name":"PoolFactory__PoolDoesNotExist","inputs":[{"name":"tokenAddress","type":"address","internalType":"address"}]}],"bytecode":{"object":"0x60a060405234801561001057600080fd5b5060405161266b38038061266b83398101604081905261002f91610040565b6001600160a01b0316608052610070565b60006020828403121561005257600080fd5b81516001600160a01b038116811461006957600080fd5b9392505050565b6080516125da610091600039600081816053015261025b01526125da6000f3fe608060405234801561001057600080fd5b506004361061004c5760003560e01c80634c252f9114610051578063597704381461008f5780639049f9d2146100bb578063bbe4f6db146100ce575b600080fd5b7f00000000000000000000000000000000000000000000000000000000000000005b6040516001600160a01b03909116815260200160405180910390f35b61007361009d366004610342565b6001600160a01b039081166000908152600160205260409020541690565b6100736100c9366004610342565b6100fa565b6100736100dc366004610342565b6001600160a01b039081166000908152602081905260409020541690565b6001600160a01b0381811660009081526020819052604081205490911615610144576040516350df0b2b60e01b81526001600160a01b038316600482015260240160405180910390fd5b6000826001600160a01b03166306fdde036040518163ffffffff1660e01b8152600401600060405180830381865afa158015610184573d6000803e3d6000fd5b505050506040513d6000823e601f3d908101601f191682016040526101ac91908101906103ac565b6040516020016101bc9190610459565b60405160208183030381529060405290506000836001600160a01b03166306fdde036040518163ffffffff1660e01b8152600401600060405180830381865afa15801561020d573d6000803e3d6000fd5b505050506040513d6000823e601f3d908101601f1916820160405261023591908101906103ac565b6040516020016102459190610488565b60405160208183030381529060405290506000847f0000000000000000000000000000000000000000000000000000000000000000848460405161028890610335565b61029594939291906104de565b604051809103906000f0801580156102b1573d6000803e3d6000fd5b506001600160a01b0386811660008181526020818152604080832080549587166001600160a01b0319968716811790915580845260018352928190208054909516841790945583519283528201529192507f4f2ce4e40f623ca765fc0167a25cb7842ceaafb8d82d3dec26ca0d0e0d2d4896910160405180910390a1949350505050565b6120888061051d83390190565b60006020828403121561035457600080fd5b81356001600160a01b038116811461036b57600080fd5b9392505050565b634e487b7160e01b600052604160045260246000fd5b60005b838110156103a357818101518382015260200161038b565b50506000910152565b6000602082840312156103be57600080fd5b815167ffffffffffffffff808211156103d657600080fd5b818401915084601f8301126103ea57600080fd5b8151818111156103fc576103fc610372565b604051601f8201601f19908116603f0116810190838211818310171561042457610424610372565b8160405282815287602084870101111561043d57600080fd5b61044e836020830160208801610388565b979650505050505050565b6602a16a9bbb0b8160cd1b81526000825161047b816007850160208701610388565b9190910160070192915050565b61747360f01b8152600082516104a5816002850160208701610388565b9190910160020192915050565b600081518084526104ca816020860160208601610388565b601f01601f19169290920160200192915050565b6001600160a01b0385811682528416602082015260806040820181905260009061050a908301856104b2565b828103606084015261044e81856104b256fe60c060405260006005553480156200001657600080fd5b506040516200208838038062002088833981016040819052620000399162000157565b8181600362000049838262000276565b50600462000058828262000276565b5050506001600160a01b0392831660805250501660a05262000342565b80516001600160a01b03811681146200008d57600080fd5b919050565b634e487b7160e01b600052604160045260246000fd5b600082601f830112620000ba57600080fd5b81516001600160401b0380821115620000d757620000d762000092565b604051601f8301601f19908116603f0116810190828211818310171562000102576200010262000092565b816040528381526020925086838588010111156200011f57600080fd5b600091505b8382101562000143578582018301518183018401529082019062000124565b600093810190920192909252949350505050565b600080600080608085870312156200016e57600080fd5b620001798562000075565b9350620001896020860162000075565b60408601519093506001600160401b0380821115620001a757600080fd5b620001b588838901620000a8565b93506060870151915080821115620001cc57600080fd5b50620001db87828801620000a8565b91505092959194509250565b600181811c90821680620001fc57607f821691505b6020821081036200021d57634e487b7160e01b600052602260045260246000fd5b50919050565b601f8211156200027157600081815260208120601f850160051c810160208610156200024c5750805b601f850160051c820191505b818110156200026d5782815560010162000258565b5050505b505050565b81516001600160401b0381111562000292576200029262000092565b620002aa81620002a38454620001e7565b8462000223565b602080601f831160018114620002e25760008415620002c95750858301515b600019600386901b1c1916600185901b1785556200026d565b600085815260208120601f198616915b828110156200031357888601518255948401946001909101908401620002f2565b5085821015620003325787850151600019600388901b60f8161c191681555b5050505050600190811b01905550565b60805160a051611ca2620003e6600039600081816102dd015281816104390152818161072e01528181610bc301528181610d2801528181610e0901528181610ec801528181610fa1015281816113c401526116c50152600081816101950152818161045a0152818161069801528181610b1b01528181610cf401528181610d8901528181610f480152818161102f0152818161138f01526116880152611ca26000f3fe608060405234801561001057600080fd5b506004361061014d5760003560e01c80636b3c4779116100c3578063a9059cbb1161007c578063a9059cbb146102c0578063b7e7fdcc146102d3578063dc0374d1146102db578063dd62ed3e14610301578063e29e03781461033a578063ff792c961461034d57600080fd5b80636b3c47791461025757806370a082311461026a57806385b29438146102935780638933da3a1461029b5780638fd78242146102b057806395d89b41146102b857600080fd5b8063313ce56711610115578063313ce567146101f257806335e6bf53146102015780633dd5e20d146102145780633f163cdf146102275780634b785efe146102315780634e6d9df81461024457600080fd5b806306fdde0314610152578063095ea7b314610170578063107c279f1461019357806318160ddd146101cd57806323b872dd146101df575b600080fd5b61015a610360565b6040516101679190611900565b60405180910390f35b61018361017e366004611948565b6103f2565b6040519015158152602001610167565b7f00000000000000000000000000000000000000000000000000000000000000005b6040516001600160a01b039091168152602001610167565b6002545b604051908152602001610167565b6101836101ed366004611974565b61040c565b60405160128152602001610167565b6101d161020f3660046119b5565b610432565b6101d16102223660046119eb565b610480565b633b9aca006101d1565b6101d161023f366004611a46565b61061a565b6101d1610252366004611a85565b610848565b6101d1610265366004611acb565b6109ae565b6101d1610278366004611af7565b6001600160a01b031660009081526020819052604090205490565b6101d1610a44565b6102ae6102a9366004611a46565b610a54565b005b6101d1610d5b565b61015a610e7d565b6101836102ce366004611948565b610e8c565b6101d1610e9a565b7f00000000000000000000000000000000000000000000000000000000000000006101b5565b6101d161030f366004611b14565b6001600160a01b03918216600090815260016020908152604080832093909416825291909152205490565b6101d16103483660046119b5565b610f7f565b6101d161035b366004611acb565b6110b9565b60606003805461036f90611b4d565b80601f016020809104026020016040519081016040528092919081815260200182805461039b90611b4d565b80156103e85780601f106103bd576101008083540402835291602001916103e8565b820191906000526020600020905b8154815290600101906020018083116103cb57829003601f168201915b5050505050905090565b60003361040081858561113f565b60019150505b92915050565b60003361041a858285611151565b6104258585856111cf565b60019150505b9392505050565b60006104067f00000000000000000000000000000000000000000000000000000000000000007f00000000000000000000000000000000000000000000000000000000000000008442610848565b600084806000036104a457604051632c9669e960e11b815260040160405180910390fd5b824267ffffffffffffffff168167ffffffffffffffff1610156104eb5760405163f20357c360e01b815267ffffffffffffffff821660048201526024015b60405180910390fd5b6040516370a0823160e01b81523060048201526000906001600160a01b038a16906370a0823190602401602060405180830381865afa158015610532573d6000803e3d6000fd5b505050506040513d601f19601f820116820180604052508101906105569190611b87565b6040516370a0823160e01b81523060048201529091506000906001600160a01b038916906370a0823190602401602060405180830381865afa1580156105a0573d6000803e3d6000fd5b505050506040513d601f19601f820116820180604052508101906105c49190611b87565b905060006105d38a84846109ae565b9050878110156106005760405163feb54daf60e01b815260048101829052602481018990526044016104e2565b61060c8b8b8b8461122e565b505050505095945050505050565b6000848060000361063e57604051632c9669e960e11b815260040160405180910390fd5b633b9aca0086101561067057604051630769ac0560e21b8152633b9aca006004820152602481018790526044016104e2565b600061067a610a44565b1115610830576040516370a0823160e01b81523060048201526000907f00000000000000000000000000000000000000000000000000000000000000006001600160a01b0316906370a0823190602401602060405180830381865afa1580156106e7573d6000803e3d6000fd5b505050506040513d601f19601f8201168201806040525081019061070b9190611b87565b6040516370a0823160e01b81523060048201529091506000906001600160a01b037f000000000000000000000000000000000000000000000000000000000000000016906370a0823190602401602060405180830381865afa158015610775573d6000803e3d6000fd5b505050506040513d601f19601f820116820180604052508101906107999190611b87565b905060006107a689610f7f565b9050808710156107d3576040516321d4d9c560e21b815260048101889052602481018290526044016104e2565b826107dc610a44565b6107e6908b611bb6565b6107f09190611bcd565b94508785101561081d576040516339d8595160e11b815260048101899052602481018690526044016104e2565b61082889828761133d565b50505061083f565b61083b86858861133d565b8591505b50949350505050565b6000828060000361086c57604051632c9669e960e11b815260040160405180910390fd5b824267ffffffffffffffff168167ffffffffffffffff1610156108ae5760405163f20357c360e01b815267ffffffffffffffff821660048201526024016104e2565b6040516370a0823160e01b81523060048201526000906001600160a01b038916906370a0823190602401602060405180830381865afa1580156108f5573d6000803e3d6000fd5b505050506040513d601f19601f820116820180604052508101906109199190611b87565b6040516370a0823160e01b81523060048201529091506000906001600160a01b038916906370a0823190602401602060405180830381865afa158015610963573d6000803e3d6000fd5b505050506040513d601f19601f820116820180604052508101906109879190611b87565b90506109948783836110b9565b94506109a289868a8a61122e565b50505050949350505050565b600083806000036109d257604051632c9669e960e11b815260040160405180910390fd5b82806000036109f457604051632c9669e960e11b815260040160405180910390fd5b6000610a02876103e5611bb6565b90506000610a108683611bb6565b9050600082610a21896103e8611bb6565b610a2b9190611bef565b9050610a378183611bcd565b9998505050505050505050565b6000610a4f60025490565b905090565b804267ffffffffffffffff168167ffffffffffffffff161015610a965760405163f20357c360e01b815267ffffffffffffffff821660048201526024016104e2565b8480600003610ab857604051632c9669e960e11b815260040160405180910390fd5b8480600003610ada57604051632c9669e960e11b815260040160405180910390fd5b8480600003610afc57604051632c9669e960e11b815260040160405180910390fd5b6000610b06610a44565b6040516370a0823160e01b81523060048201527f00000000000000000000000000000000000000000000000000000000000000006001600160a01b0316906370a0823190602401602060405180830381865afa158015610b6a573d6000803e3d6000fd5b505050506040513d601f19601f82011682018060405250810190610b8e9190611b87565b610b98908b611bb6565b610ba29190611bcd565b90506000610bae610a44565b6040516370a0823160e01b81523060048201527f00000000000000000000000000000000000000000000000000000000000000006001600160a01b0316906370a0823190602401602060405180830381865afa158015610c12573d6000803e3d6000fd5b505050506040513d601f19601f82011682018060405250810190610c369190611b87565b610c40908c611bb6565b610c4a9190611bcd565b905088821015610c775760405163feb54daf60e01b815260048101839052602481018a90526044016104e2565b87811015610ca25760405163feb54daf60e01b815260048101829052602481018990526044016104e2565b610cac338b6113ec565b604080518381526020810183905233917f96cd817c6329656790ef8fba7675405193677d39619571282f5e21f3a98cd059910160405180910390a2610d1b6001600160a01b037f0000000000000000000000000000000000000000000000000000000000000000163384611426565b610d4f6001600160a01b037f0000000000000000000000000000000000000000000000000000000000000000163383611426565b50505050505050505050565b6040516370a0823160e01b8152306004820152600090610a4f90670de0b6b3a7640000906001600160a01b037f000000000000000000000000000000000000000000000000000000000000000016906370a0823190602401602060405180830381865afa158015610dd0573d6000803e3d6000fd5b505050506040513d601f19601f82011682018060405250810190610df49190611b87565b6040516370a0823160e01b81523060048201527f00000000000000000000000000000000000000000000000000000000000000006001600160a01b0316906370a08231906024015b602060405180830381865afa158015610e59573d6000803e3d6000fd5b505050506040513d601f19601f820116820180604052508101906102659190611b87565b60606004805461036f90611b4d565b6000336104008185856111cf565b6040516370a0823160e01b8152306004820152600090610a4f90670de0b6b3a7640000906001600160a01b037f000000000000000000000000000000000000000000000000000000000000000016906370a0823190602401602060405180830381865afa158015610f0f573d6000803e3d6000fd5b505050506040513d601f19601f82011682018060405250810190610f339190611b87565b6040516370a0823160e01b81523060048201527f00000000000000000000000000000000000000000000000000000000000000006001600160a01b0316906370a0823190602401610e3c565b6040516370a0823160e01b815230600482015260009081906001600160a01b037f000000000000000000000000000000000000000000000000000000000000000016906370a0823190602401602060405180830381865afa158015610fe8573d6000803e3d6000fd5b505050506040513d601f19601f8201168201806040525081019061100c9190611b87565b6040516370a0823160e01b81523060048201529091506000906001600160a01b037f000000000000000000000000000000000000000000000000000000000000000016906370a0823190602401602060405180830381865afa158015611076573d6000803e3d6000fd5b505050506040513d601f19601f8201168201806040525081019061109a9190611b87565b9050806110a78386611bb6565b6110b19190611bcd565b949350505050565b600083806000036110dd57604051632c9669e960e11b815260040160405180910390fd5b82806000036110ff57604051632c9669e960e11b815260040160405180910390fd5b6111098685611c02565b611115906103e5611bb6565b61111f8787611bb6565b61112b90612710611bb6565b6111359190611bcd565b9695505050505050565b61114c8383836001611485565b505050565b6001600160a01b0383811660009081526001602090815260408083209386168352929052205460001981146111c957818110156111ba57604051637dc7a0d960e11b81526001600160a01b038416600482015260248101829052604481018390526064016104e2565b6111c984848484036000611485565b50505050565b6001600160a01b0383166111f957604051634b637e8f60e11b8152600060048201526024016104e2565b6001600160a01b0382166112235760405163ec442f0560e01b8152600060048201526024016104e2565b61114c83838361155a565b61123784611684565b80611246575061124682611684565b806112625750816001600160a01b0316846001600160a01b0316145b1561128057604051637d16cb4960e11b815260040160405180910390fd5b6005805490600061129083611c15565b9190505550600a600554106112c05760006005556112c06001600160a01b03831633670de0b6b3a7640000611426565b604080516001600160a01b0386811682526020820186905284168183015260608101839052905133917f5380cf97d8f645d3c4896da60c053458dca03a3a31cec642ac80e1ddf0d8d02a919081900360800190a26113296001600160a01b03851633308661170f565b6111c96001600160a01b0383163383611426565b6113473382611748565b604080518381526020810185905233917fac1d76749e5447b7b16f5ab61447e1bd502f3bb4807af3b28e620d1700a6ee45910160405180910390a26113b76001600160a01b037f00000000000000000000000000000000000000000000000000000000000000001633308661170f565b61114c6001600160a01b037f00000000000000000000000000000000000000000000000000000000000000001633308561170f565b6001600160a01b03821661141657604051634b637e8f60e11b8152600060048201526024016104e2565b6114228260008361155a565b5050565b6040516001600160a01b0383811660248301526044820183905261114c91859182169063a9059cbb906064015b604051602081830303815290604052915060e01b6020820180516001600160e01b03838183161783525050505061177e565b6001600160a01b0384166114af5760405163e602df0560e01b8152600060048201526024016104e2565b6001600160a01b0383166114d957604051634a1406b160e11b8152600060048201526024016104e2565b6001600160a01b03808516600090815260016020908152604080832093871683529290522082905580156111c957826001600160a01b0316846001600160a01b03167f8c5be1e5ebec7d5bd14f71427d1e84f3dd0314c0f7b2291e5b200ac8c7c3b9258460405161154c91815260200190565b60405180910390a350505050565b6001600160a01b03831661158557806002600082825461157a9190611bef565b909155506115f79050565b6001600160a01b038316600090815260208190526040902054818110156115d85760405163391434e360e21b81526001600160a01b038516600482015260248101829052604481018390526064016104e2565b6001600160a01b03841660009081526020819052604090209082900390555b6001600160a01b03821661161357600280548290039055611632565b6001600160a01b03821660009081526020819052604090208054820190555b816001600160a01b0316836001600160a01b03167fddf252ad1be2c89b69c2b068fc378daa952ba7f163c4a11628f55a4df523b3ef8360405161167791815260200190565b60405180910390a3505050565b60007f00000000000000000000000000000000000000000000000000000000000000006001600160a01b0316826001600160a01b0316141580156116fa57507f00000000000000000000000000000000000000000000000000000000000000006001600160a01b0316826001600160a01b031614155b1561170757506001919050565b506000919050565b6040516001600160a01b0384811660248301528381166044830152606482018390526111c99186918216906323b872dd90608401611453565b6001600160a01b0382166117725760405163ec442f0560e01b8152600060048201526024016104e2565b6114226000838361155a565b60006117936001600160a01b038416836117e1565b905080516000141580156117b85750808060200190518101906117b69190611c2e565b155b1561114c57604051635274afe760e01b81526001600160a01b03841660048201526024016104e2565b606061042b8383600084600080856001600160a01b031684866040516118079190611c50565b60006040518083038185875af1925050503d8060008114611844576040519150601f19603f3d011682016040523d82523d6000602084013e611849565b606091505b509150915061113586838360608261186957611864826118b0565b61042b565b815115801561188057506001600160a01b0384163b155b156118a957604051639996b31560e01b81526001600160a01b03851660048201526024016104e2565b508061042b565b8051156118c05780518082602001fd5b604051630a12f52160e11b815260040160405180910390fd5b50565b60005b838110156118f75781810151838201526020016118df565b50506000910152565b602081526000825180602084015261191f8160408501602087016118dc565b601f01601f19169190910160400192915050565b6001600160a01b03811681146118d957600080fd5b6000806040838503121561195b57600080fd5b823561196681611933565b946020939093013593505050565b60008060006060848603121561198957600080fd5b833561199481611933565b925060208401356119a481611933565b929592945050506040919091013590565b6000602082840312156119c757600080fd5b5035919050565b803567ffffffffffffffff811681146119e657600080fd5b919050565b600080600080600060a08688031215611a0357600080fd5b8535611a0e81611933565b9450602086013593506040860135611a2581611933565b925060608601359150611a3a608087016119ce565b90509295509295909350565b60008060008060808587031215611a5c57600080fd5b843593506020850135925060408501359150611a7a606086016119ce565b905092959194509250565b60008060008060808587031215611a9b57600080fd5b8435611aa681611933565b93506020850135611ab681611933565b925060408501359150611a7a606086016119ce565b600080600060608486031215611ae057600080fd5b505081359360208301359350604090920135919050565b600060208284031215611b0957600080fd5b813561042b81611933565b60008060408385031215611b2757600080fd5b8235611b3281611933565b91506020830135611b4281611933565b809150509250929050565b600181811c90821680611b6157607f821691505b602082108103611b8157634e487b7160e01b600052602260045260246000fd5b50919050565b600060208284031215611b9957600080fd5b5051919050565b634e487b7160e01b600052601160045260246000fd5b808202811582820484141761040657610406611ba0565b600082611bea57634e487b7160e01b600052601260045260246000fd5b500490565b8082018082111561040657610406611ba0565b8181038181111561040657610406611ba0565b600060018201611c2757611c27611ba0565b5060010190565b600060208284031215611c4057600080fd5b8151801515811461042b57600080fd5b60008251611c628184602087016118dc565b919091019291505056fea26469706673582212207e375345a08f785a21ab6faa37e0d64b699f1e8cc4d859b4de9b33e74b225ddd64736f6c63430008140033a26469706673582212206999a233f9e5fbbe0881c01cc8b8b3f85cb9a8b3f695521452726c1571d67ba764736f6c63430008140033","linkReferences":{}},"methodIdentifiers":{"createPool(address)":"9049f9d2","getPool(address)":"bbe4f6db","getToken(address)":"59770438","getWethToken()":"4c252f91"},"id":35}